{
  "contractName": "EducationPass",
  "abi": [
    {
      "constant": true,
      "inputs": [],
      "name": "name",
      "outputs": [
        {
          "name": "",
          "type": "string"
        }
      ],
      "payable": false,
      "stateMutability": "view",
      "type": "function"
    },
    {
      "constant": true,
      "inputs": [
        {
          "name": "_tokenId",
          "type": "uint256"
        }
      ],
      "name": "getApproved",
      "outputs": [
        {
          "name": "",
          "type": "address"
        }
      ],
      "payable": false,
      "stateMutability": "view",
      "type": "function"
    },
    {
      "constant": false,
      "inputs": [
        {
          "name": "_to",
          "type": "address"
        },
        {
          "name": "_tokenId",
          "type": "uint256"
        }
      ],
      "name": "approve",
      "outputs": [],
      "payable": false,
      "stateMutability": "nonpayable",
      "type": "function"
    },
    {
      "constant": true,
      "inputs": [],
      "name": "EXPIRE_TERM",
      "outputs": [
        {
          "name": "",
          "type": "uint256"
        }
      ],
      "payable": false,
      "stateMutability": "view",
      "type": "function"
    },
    {
      "constant": true,
      "inputs": [],
      "name": "totalSupply",
      "outputs": [
        {
          "name": "",
          "type": "uint256"
        }
      ],
      "payable": false,
      "stateMutability": "view",
      "type": "function"
    },
    {
      "constant": false,
      "inputs": [
        {
          "name": "_from",
          "type": "address"
        },
        {
          "name": "_to",
          "type": "address"
        },
        {
          "name": "_tokenId",
          "type": "uint256"
        }
      ],
      "name": "transferFrom",
      "outputs": [],
      "payable": false,
      "stateMutability": "nonpayable",
      "type": "function"
    },
    {
      "constant": true,
      "inputs": [
        {
          "name": "_owner",
          "type": "address"
        },
        {
          "name": "_index",
          "type": "uint256"
        }
      ],
      "name": "tokenOfOwnerByIndex",
      "outputs": [
        {
          "name": "",
          "type": "uint256"
        }
      ],
      "payable": false,
      "stateMutability": "view",
      "type": "function"
    },
    {
      "constant": false,
      "inputs": [
        {
          "name": "_from",
          "type": "address"
        },
        {
          "name": "_to",
          "type": "address"
        },
        {
          "name": "_tokenId",
          "type": "uint256"
        }
      ],
      "name": "safeTransferFrom",
      "outputs": [],
      "payable": false,
      "stateMutability": "nonpayable",
      "type": "function"
    },
    {
      "constant": true,
      "inputs": [
        {
          "name": "_index",
          "type": "uint256"
        }
      ],
      "name": "tokenByIndex",
      "outputs": [
        {
          "name": "",
          "type": "uint256"
        }
      ],
      "payable": false,
      "stateMutability": "view",
      "type": "function"
    },
    {
      "constant": true,
      "inputs": [
        {
          "name": "_tokenId",
          "type": "uint256"
        }
      ],
      "name": "ownerOf",
      "outputs": [
        {
          "name": "",
          "type": "address"
        }
      ],
      "payable": false,
      "stateMutability": "view",
      "type": "function"
    },
    {
      "constant": true,
      "inputs": [
        {
          "name": "_owner",
          "type": "address"
        }
      ],
      "name": "balanceOf",
      "outputs": [
        {
          "name": "",
          "type": "uint256"
        }
      ],
      "payable": false,
      "stateMutability": "view",
      "type": "function"
    },
    {
      "constant": false,
      "inputs": [],
      "name": "renounceOwnership",
      "outputs": [],
      "payable": false,
      "stateMutability": "nonpayable",
      "type": "function"
    },
    {
      "constant": true,
      "inputs": [],
      "name": "owner",
      "outputs": [
        {
          "name": "",
          "type": "address"
        }
      ],
      "payable": false,
      "stateMutability": "view",
      "type": "function"
    },
    {
      "constant": true,
      "inputs": [],
      "name": "symbol",
      "outputs": [
        {
          "name": "",
          "type": "string"
        }
      ],
      "payable": false,
      "stateMutability": "view",
      "type": "function"
    },
    {
      "constant": false,
      "inputs": [
        {
          "name": "_to",
          "type": "address"
        },
        {
          "name": "_approved",
          "type": "bool"
        }
      ],
      "name": "setApprovalForAll",
      "outputs": [],
      "payable": false,
      "stateMutability": "nonpayable",
      "type": "function"
    },
    {
      "constant": true,
      "inputs": [
        {
          "name": "",
          "type": "uint256"
        }
      ],
      "name": "expireDates",
      "outputs": [
        {
          "name": "",
          "type": "uint256"
        }
      ],
      "payable": false,
      "stateMutability": "view",
      "type": "function"
    },
    {
      "constant": false,
      "inputs": [
        {
          "name": "_from",
          "type": "address"
        },
        {
          "name": "_to",
          "type": "address"
        },
        {
          "name": "_tokenId",
          "type": "uint256"
        },
        {
          "name": "_data",
          "type": "bytes"
        }
      ],
      "name": "safeTransferFrom",
      "outputs": [],
      "payable": false,
      "stateMutability": "nonpayable",
      "type": "function"
    },
    {
      "constant": true,
      "inputs": [
        {
          "name": "_tokenId",
          "type": "uint256"
        }
      ],
      "name": "tokenURI",
      "outputs": [
        {
          "name": "",
          "type": "string"
        }
      ],
      "payable": false,
      "stateMutability": "view",
      "type": "function"
    },
    {
      "constant": true,
      "inputs": [
        {
          "name": "_owner",
          "type": "address"
        },
        {
          "name": "_operator",
          "type": "address"
        }
      ],
      "name": "isApprovedForAll",
      "outputs": [
        {
          "name": "",
          "type": "bool"
        }
      ],
      "payable": false,
      "stateMutability": "view",
      "type": "function"
    },
    {
      "constant": false,
      "inputs": [
        {
          "name": "_newOwner",
          "type": "address"
        }
      ],
      "name": "transferOwnership",
      "outputs": [],
      "payable": false,
      "stateMutability": "nonpayable",
      "type": "function"
    },
    {
      "inputs": [],
      "payable": false,
      "stateMutability": "nonpayable",
      "type": "constructor"
    },
    {
      "anonymous": false,
      "inputs": [
        {
          "indexed": true,
          "name": "previousOwner",
          "type": "address"
        }
      ],
      "name": "OwnershipRenounced",
      "type": "event"
    },
    {
      "anonymous": false,
      "inputs": [
        {
          "indexed": true,
          "name": "previousOwner",
          "type": "address"
        },
        {
          "indexed": true,
          "name": "newOwner",
          "type": "address"
        }
      ],
      "name": "OwnershipTransferred",
      "type": "event"
    },
    {
      "anonymous": false,
      "inputs": [
        {
          "indexed": true,
          "name": "_from",
          "type": "address"
        },
        {
          "indexed": true,
          "name": "_to",
          "type": "address"
        },
        {
          "indexed": false,
          "name": "_tokenId",
          "type": "uint256"
        }
      ],
      "name": "Transfer",
      "type": "event"
    },
    {
      "anonymous": false,
      "inputs": [
        {
          "indexed": true,
          "name": "_owner",
          "type": "address"
        },
        {
          "indexed": true,
          "name": "_approved",
          "type": "address"
        },
        {
          "indexed": false,
          "name": "_tokenId",
          "type": "uint256"
        }
      ],
      "name": "Approval",
      "type": "event"
    },
    {
      "anonymous": false,
      "inputs": [
        {
          "indexed": true,
          "name": "_owner",
          "type": "address"
        },
        {
          "indexed": true,
          "name": "_operator",
          "type": "address"
        },
        {
          "indexed": false,
          "name": "_approved",
          "type": "bool"
        }
      ],
      "name": "ApprovalForAll",
      "type": "event"
    },
    {
      "constant": false,
      "inputs": [
        {
          "name": "_to",
          "type": "address"
        },
        {
          "name": "_uportId",
          "type": "uint256"
        }
      ],
      "name": "mint",
      "outputs": [],
      "payable": false,
      "stateMutability": "nonpayable",
      "type": "function"
    },
    {
      "constant": true,
      "inputs": [
        {
          "name": "_tokenId",
          "type": "uint256"
        }
      ],
      "name": "exists",
      "outputs": [
        {
          "name": "_exists",
          "type": "bool"
        }
      ],
      "payable": false,
      "stateMutability": "view",
      "type": "function"
    }
  ],
  "bytecode": "0x60806040523480156200001157600080fd5b506040805190810160405280600d81526020017f456475636174696f6e50617373000000000000000000000000000000000000008152506040805190810160405280600381526020017f4550540000000000000000000000000000000000000000000000000000000000815250816004908051906020019062000096929190620000f9565b508060059080519060200190620000af929190620000f9565b50505033600b60006101000a81548173ffffffffffffffffffffffffffffffffffffffff021916908373ffffffffffffffffffffffffffffffffffffffff160217905550620001a8565b828054600181600116156101000203166002900490600052602060002090601f016020900481019282601f106200013c57805160ff19168380011785556200016d565b828001600101855582156200016d579182015b828111156200016c5782518255916020019190600101906200014f565b5b5090506200017c919062000180565b5090565b620001a591905b80821115620001a157600081600090555060010162000187565b5090565b90565b61230580620001b86000396000f300608060405260043610610128576000357c0100000000000000000000000000000000000000000000000000000000900463ffffffff16806306fdde031461012d578063081812fc146101bd578063095ea7b31461022a578063163499c41461027757806318160ddd146102a257806323b872dd146102cd5780632f745c591461033a57806340c10f191461039b57806342842e0e146103e85780634f558e79146104555780634f6ccce71461049a5780636352211e146104db57806370a0823114610548578063715018a61461059f5780638da5cb5b146105b657806395d89b411461060d578063a22cb4651461069d578063a4b8776e146106ec578063b88d4fde1461072d578063c87b56dd146107e0578063e985e9c514610886578063f2fde38b14610901575b600080fd5b34801561013957600080fd5b50610142610944565b6040518080602001828103825283818151815260200191508051906020019080838360005b83811015610182578082015181840152602081019050610167565b50505050905090810190601f1680156101af5780820380516001836020036101000a031916815260200191505b509250505060405180910390f35b3480156101c957600080fd5b506101e8600480360381019080803590602001909291905050506109e6565b604051808273ffffffffffffffffffffffffffffffffffffffff1673ffffffffffffffffffffffffffffffffffffffff16815260200191505060405180910390f35b34801561023657600080fd5b50610275600480360381019080803573ffffffffffffffffffffffffffffffffffffffff16906020019092919080359060200190929190505050610a23565b005b34801561028357600080fd5b5061028c610be9565b6040518082815260200191505060405180910390f35b3480156102ae57600080fd5b506102b7610bf1565b6040518082815260200191505060405180910390f35b3480156102d957600080fd5b50610338600480360381019080803573ffffffffffffffffffffffffffffffffffffffff169060200190929190803573ffffffffffffffffffffffffffffffffffffffff16906020019092919080359060200190929190505050610bfe565b005b34801561034657600080fd5b50610385600480360381019080803573ffffffffffffffffffffffffffffffffffffffff16906020019092919080359060200190929190505050610d15565b6040518082815260200191505060405180910390f35b3480156103a757600080fd5b506103e6600480360381019080803573ffffffffffffffffffffffffffffffffffffffff16906020019092919080359060200190929190505050610d8c565b005b3480156103f457600080fd5b50610453600480360381019080803573ffffffffffffffffffffffffffffffffffffffff169060200190929190803573ffffffffffffffffffffffffffffffffffffffff16906020019092919080359060200190929190505050610fb7565b005b34801561046157600080fd5b5061048060048036038101908080359060200190929190505050610fef565b604051808215151515815260200191505060405180910390f35b3480156104a657600080fd5b506104c56004803603810190808035906020019092919050505061107e565b6040518082815260200191505060405180910390f35b3480156104e757600080fd5b50610506600480360381019080803590602001909291905050506110b6565b604051808273ffffffffffffffffffffffffffffffffffffffff1673ffffffffffffffffffffffffffffffffffffffff16815260200191505060405180910390f35b34801561055457600080fd5b50610589600480360381019080803573ffffffffffffffffffffffffffffffffffffffff169060200190929190505050611133565b6040518082815260200191505060405180910390f35b3480156105ab57600080fd5b506105b46111b7565b005b3480156105c257600080fd5b506105cb6112bc565b604051808273ffffffffffffffffffffffffffffffffffffffff1673ffffffffffffffffffffffffffffffffffffffff16815260200191505060405180910390f35b34801561061957600080fd5b506106226112e2565b6040518080602001828103825283818151815260200191508051906020019080838360005b83811015610662578082015181840152602081019050610647565b50505050905090810190601f16801561068f5780820380516001836020036101000a031916815260200191505b509250505060405180910390f35b3480156106a957600080fd5b506106ea600480360381019080803573ffffffffffffffffffffffffffffffffffffffff169060200190929190803515159060200190929190505050611384565b005b3480156106f857600080fd5b50610717600480360381019080803590602001909291905050506114c0565b6040518082815260200191505060405180910390f35b34801561073957600080fd5b506107de600480360381019080803573ffffffffffffffffffffffffffffffffffffffff169060200190929190803573ffffffffffffffffffffffffffffffffffffffff16906020019092919080359060200190929190803590602001908201803590602001908080601f01602080910402602001604051908101604052809392919081815260200183838082843782019150505050505091929192905050506114d8565b005b3480156107ec57600080fd5b5061080b60048036038101908080359060200190929190505050611517565b6040518080602001828103825283818151815260200191508051906020019080838360005b8381101561084b578082015181840152602081019050610830565b50505050905090810190601f1680156108785780820380516001836020036101000a031916815260200191505b509250505060405180910390f35b34801561089257600080fd5b506108e7600480360381019080803573ffffffffffffffffffffffffffffffffffffffff169060200190929190803573ffffffffffffffffffffffffffffffffffffffff1690602001909291905050506115e0565b604051808215151515815260200191505060405180910390f35b34801561090d57600080fd5b50610942600480360381019080803573ffffffffffffffffffffffffffffffffffffffff169060200190929190505050611674565b005b606060048054600181600116156101000203166002900480601f0160208091040260200160405190810160405280929190818152602001828054600181600116156101000203166002900480156109dc5780601f106109b1576101008083540402835291602001916109dc565b820191906000526020600020905b8154815290600101906020018083116109bf57829003601f168201915b5050505050905090565b60006001600083815260200190815260200160002060009054906101000a900473ffffffffffffffffffffffffffffffffffffffff169050919050565b6000610a2e826110b6565b90508073ffffffffffffffffffffffffffffffffffffffff168373ffffffffffffffffffffffffffffffffffffffff1614151515610a6b57600080fd5b8073ffffffffffffffffffffffffffffffffffffffff163373ffffffffffffffffffffffffffffffffffffffff161480610aab5750610aaa81336115e0565b5b1515610ab657600080fd5b600073ffffffffffffffffffffffffffffffffffffffff16610ad7836109e6565b73ffffffffffffffffffffffffffffffffffffffff16141580610b275750600073ffffffffffffffffffffffffffffffffffffffff168373ffffffffffffffffffffffffffffffffffffffff1614155b15610be457826001600084815260200190815260200160002060006101000a81548173ffffffffffffffffffffffffffffffffffffffff021916908373ffffffffffffffffffffffffffffffffffffffff1602179055508273ffffffffffffffffffffffffffffffffffffffff168173ffffffffffffffffffffffffffffffffffffffff167f8c5be1e5ebec7d5bd14f71427d1e84f3dd0314c0f7b2291e5b200ac8c7c3b925846040518082815260200191505060405180910390a35b505050565b630784ce0081565b6000600880549050905090565b80610c0933826116dc565b1515610c1457600080fd5b600073ffffffffffffffffffffffffffffffffffffffff168473ffffffffffffffffffffffffffffffffffffffff1614151515610c5057600080fd5b600073ffffffffffffffffffffffffffffffffffffffff168373ffffffffffffffffffffffffffffffffffffffff1614151515610c8c57600080fd5b610c968483611771565b610ca084836118da565b610caa8383611af2565b8273ffffffffffffffffffffffffffffffffffffffff168473ffffffffffffffffffffffffffffffffffffffff167fddf252ad1be2c89b69c2b068fc378daa952ba7f163c4a11628f55a4df523b3ef846040518082815260200191505060405180910390a350505050565b6000610d2083611133565b82101515610d2d57600080fd5b600660008473ffffffffffffffffffffffffffffffffffffffff1673ffffffffffffffffffffffffffffffffffffffff16815260200190815260200160002082815481101515610d7957fe5b9060005260206000200154905092915050565b600b60009054906101000a900473ffffffffffffffffffffffffffffffffffffffff1673ffffffffffffffffffffffffffffffffffffffff163373ffffffffffffffffffffffffffffffffffffffff16141515610de857600080fd5b600073ffffffffffffffffffffffffffffffffffffffff168273ffffffffffffffffffffffffffffffffffffffff1614151515610e8d576040517f08c379a000000000000000000000000000000000000000000000000000000000815260040180806020018281038252600c8152602001807f5f746f206973207a65726f2e000000000000000000000000000000000000000081525060200191505060405180910390fd5b610e9681610fef565b151515610f0b576040517f08c379a000000000000000000000000000000000000000000000000000000000815260040180806020018281038252600e8152602001807f616c72656164792065786973742e00000000000000000000000000000000000081525060200191505060405180910390fd5b6000610f1683611133565b141515610f8b576040517f08c379a00000000000000000000000000000000000000000000000000000000081526004018080602001828103825260128152602001807f616c72656164792068617320746f6b656e2e000000000000000000000000000081525060200191505060405180910390fd5b610f958282611bc9565b630784ce004201600c6000838152602001908152602001600020819055505050565b80610fc233826116dc565b1515610fcd57600080fd5b610fe984848460206040519081016040528060008152506114d8565b50505050565b60008060008084815260200190815260200160002060009054906101000a900473ffffffffffffffffffffffffffffffffffffffff169050600073ffffffffffffffffffffffffffffffffffffffff168173ffffffffffffffffffffffffffffffffffffffff16141580156110765750600c60008481526020019081526020016000205442105b915050919050565b6000611088610bf1565b8210151561109557600080fd5b6008828154811015156110a457fe5b90600052602060002001549050919050565b60008060008084815260200190815260200160002060009054906101000a900473ffffffffffffffffffffffffffffffffffffffff169050600073ffffffffffffffffffffffffffffffffffffffff168173ffffffffffffffffffffffffffffffffffffffff161415151561112a57600080fd5b80915050919050565b60008073ffffffffffffffffffffffffffffffffffffffff168273ffffffffffffffffffffffffffffffffffffffff161415151561117057600080fd5b600260008373ffffffffffffffffffffffffffffffffffffffff1673ffffffffffffffffffffffffffffffffffffffff168152602001908152602001600020549050919050565b600b60009054906101000a900473ffffffffffffffffffffffffffffffffffffffff1673ffffffffffffffffffffffffffffffffffffffff163373ffffffffffffffffffffffffffffffffffffffff1614151561121357600080fd5b600b60009054906101000a900473ffffffffffffffffffffffffffffffffffffffff1673ffffffffffffffffffffffffffffffffffffffff167ff8df31144d9c2f0f6b59d69b8b98abd5459d07f2742c4df920b25aae33c6482060405160405180910390a26000600b60006101000a81548173ffffffffffffffffffffffffffffffffffffffff021916908373ffffffffffffffffffffffffffffffffffffffff160217905550565b600b60009054906101000a900473ffffffffffffffffffffffffffffffffffffffff1681565b606060058054600181600116156101000203166002900480601f01602080910402602001604051908101604052809291908181526020018280546001816001161561010002031660029004801561137a5780601f1061134f5761010080835404028352916020019161137a565b820191906000526020600020905b81548152906001019060200180831161135d57829003601f168201915b5050505050905090565b3373ffffffffffffffffffffffffffffffffffffffff168273ffffffffffffffffffffffffffffffffffffffff16141515156113bf57600080fd5b80600360003373ffffffffffffffffffffffffffffffffffffffff1673ffffffffffffffffffffffffffffffffffffffff16815260200190815260200160002060008473ffffffffffffffffffffffffffffffffffffffff1673ffffffffffffffffffffffffffffffffffffffff16815260200190815260200160002060006101000a81548160ff0219169083151502179055508173ffffffffffffffffffffffffffffffffffffffff163373ffffffffffffffffffffffffffffffffffffffff167f17307eab39ab6107e8899845ad3d59bd9653f200f220920489ca2b5937696c3183604051808215151515815260200191505060405180910390a35050565b600c6020528060005260406000206000915090505481565b816114e333826116dc565b15156114ee57600080fd5b6114f9858585610bfe565b61150585858585611c20565b151561151057600080fd5b5050505050565b606061152282610fef565b151561152d57600080fd5b600a60008381526020019081526020016000208054600181600116156101000203166002900480601f0160208091040260200160405190810160405280929190818152602001828054600181600116156101000203166002900480156115d45780601f106115a9576101008083540402835291602001916115d4565b820191906000526020600020905b8154815290600101906020018083116115b757829003601f168201915b50505050509050919050565b6000600360008473ffffffffffffffffffffffffffffffffffffffff1673ffffffffffffffffffffffffffffffffffffffff16815260200190815260200160002060008373ffffffffffffffffffffffffffffffffffffffff1673ffffffffffffffffffffffffffffffffffffffff16815260200190815260200160002060009054906101000a900460ff16905092915050565b600b60009054906101000a900473ffffffffffffffffffffffffffffffffffffffff1673ffffffffffffffffffffffffffffffffffffffff163373ffffffffffffffffffffffffffffffffffffffff161415156116d057600080fd5b6116d981611e0e565b50565b6000806116e8836110b6565b90508073ffffffffffffffffffffffffffffffffffffffff168473ffffffffffffffffffffffffffffffffffffffff16148061175757508373ffffffffffffffffffffffffffffffffffffffff1661173f846109e6565b73ffffffffffffffffffffffffffffffffffffffff16145b80611768575061176781856115e0565b5b91505092915050565b8173ffffffffffffffffffffffffffffffffffffffff16611791826110b6565b73ffffffffffffffffffffffffffffffffffffffff161415156117b357600080fd5b600073ffffffffffffffffffffffffffffffffffffffff166001600083815260200190815260200160002060009054906101000a900473ffffffffffffffffffffffffffffffffffffffff1673ffffffffffffffffffffffffffffffffffffffff161415156118d65760006001600083815260200190815260200160002060006101000a81548173ffffffffffffffffffffffffffffffffffffffff021916908373ffffffffffffffffffffffffffffffffffffffff160217905550600073ffffffffffffffffffffffffffffffffffffffff168273ffffffffffffffffffffffffffffffffffffffff167f8c5be1e5ebec7d5bd14f71427d1e84f3dd0314c0f7b2291e5b200ac8c7c3b925836040518082815260200191505060405180910390a35b5050565b60008060006118e98585611f0a565b600760008581526020019081526020016000205492506119556001600660008873ffffffffffffffffffffffffffffffffffffffff1673ffffffffffffffffffffffffffffffffffffffff1681526020019081526020016000208054905061203890919063ffffffff16565b9150600660008673ffffffffffffffffffffffffffffffffffffffff1673ffffffffffffffffffffffffffffffffffffffff168152602001908152602001600020828154811015156119a357fe5b9060005260206000200154905080600660008773ffffffffffffffffffffffffffffffffffffffff1673ffffffffffffffffffffffffffffffffffffffff168152602001908152602001600020848154811015156119fd57fe5b90600052602060002001819055506000600660008773ffffffffffffffffffffffffffffffffffffffff1673ffffffffffffffffffffffffffffffffffffffff16815260200190815260200160002083815481101515611a5957fe5b9060005260206000200181905550600660008673ffffffffffffffffffffffffffffffffffffffff1673ffffffffffffffffffffffffffffffffffffffff168152602001908152602001600020805480919060019003611ab99190612288565b50600060076000868152602001908152602001600020819055508260076000838152602001908152602001600020819055505050505050565b6000611afe8383612051565b600660008473ffffffffffffffffffffffffffffffffffffffff1673ffffffffffffffffffffffffffffffffffffffff168152602001908152602001600020805490509050600660008473ffffffffffffffffffffffffffffffffffffffff1673ffffffffffffffffffffffffffffffffffffffff168152602001908152602001600020829080600181540180825580915050906001820390600052602060002001600090919290919091505550806007600084815260200190815260200160002081905550505050565b611bd382826121a9565b600880549050600960008381526020019081526020016000208190555060088190806001815401808255809150509060018203906000526020600020016000909192909190915055505050565b600080611c428573ffffffffffffffffffffffffffffffffffffffff16612259565b1515611c515760019150611e05565b8473ffffffffffffffffffffffffffffffffffffffff1663f0b9e5ba8786866040518463ffffffff167c0100000000000000000000000000000000000000000000000000000000028152600401808473ffffffffffffffffffffffffffffffffffffffff1673ffffffffffffffffffffffffffffffffffffffff16815260200183815260200180602001828103825283818151815260200191508051906020019080838360005b83811015611d13578082015181840152602081019050611cf8565b50505050905090810190601f168015611d405780820380516001836020036101000a031916815260200191505b50945050505050602060405180830381600087803b158015611d6157600080fd5b505af1158015611d75573d6000803e3d6000fd5b505050506040513d6020811015611d8b57600080fd5b8101908080519060200190929190505050905063f0b9e5ba7c0100000000000000000000000000000000000000000000000000000000027bffffffffffffffffffffffffffffffffffffffffffffffffffffffff1916817bffffffffffffffffffffffffffffffffffffffffffffffffffffffff19161491505b50949350505050565b600073ffffffffffffffffffffffffffffffffffffffff168173ffffffffffffffffffffffffffffffffffffffff1614151515611e4a57600080fd5b8073ffffffffffffffffffffffffffffffffffffffff16600b60009054906101000a900473ffffffffffffffffffffffffffffffffffffffff1673ffffffffffffffffffffffffffffffffffffffff167f8be0079c531659141344cd1fd0a4f28419497f9722a3daafe3b4186f6b6457e060405160405180910390a380600b60006101000a81548173ffffffffffffffffffffffffffffffffffffffff021916908373ffffffffffffffffffffffffffffffffffffffff16021790555050565b8173ffffffffffffffffffffffffffffffffffffffff16611f2a826110b6565b73ffffffffffffffffffffffffffffffffffffffff16141515611f4c57600080fd5b611f9f6001600260008573ffffffffffffffffffffffffffffffffffffffff1673ffffffffffffffffffffffffffffffffffffffff1681526020019081526020016000205461203890919063ffffffff16565b600260008473ffffffffffffffffffffffffffffffffffffffff1673ffffffffffffffffffffffffffffffffffffffff16815260200190815260200160002081905550600080600083815260200190815260200160002060006101000a81548173ffffffffffffffffffffffffffffffffffffffff021916908373ffffffffffffffffffffffffffffffffffffffff1602179055505050565b600082821115151561204657fe5b818303905092915050565b600073ffffffffffffffffffffffffffffffffffffffff1660008083815260200190815260200160002060009054906101000a900473ffffffffffffffffffffffffffffffffffffffff1673ffffffffffffffffffffffffffffffffffffffff161415156120be57600080fd5b8160008083815260200190815260200160002060006101000a81548173ffffffffffffffffffffffffffffffffffffffff021916908373ffffffffffffffffffffffffffffffffffffffff1602179055506121626001600260008573ffffffffffffffffffffffffffffffffffffffff1673ffffffffffffffffffffffffffffffffffffffff1681526020019081526020016000205461226c90919063ffffffff16565b600260008473ffffffffffffffffffffffffffffffffffffffff1673ffffffffffffffffffffffffffffffffffffffff168152602001908152602001600020819055505050565b600073ffffffffffffffffffffffffffffffffffffffff168273ffffffffffffffffffffffffffffffffffffffff16141515156121e557600080fd5b6121ef8282611af2565b8173ffffffffffffffffffffffffffffffffffffffff16600073ffffffffffffffffffffffffffffffffffffffff167fddf252ad1be2c89b69c2b068fc378daa952ba7f163c4a11628f55a4df523b3ef836040518082815260200191505060405180910390a35050565b600080823b905060008111915050919050565b6000818301905082811015151561227f57fe5b80905092915050565b8154818355818111156122af578183600052602060002091820191016122ae91906122b4565b5b505050565b6122d691905b808211156122d25760008160009055506001016122ba565b5090565b905600a165627a7a72305820d33f55bbdc361999b6446b132115373320c3df60165d36ce31c9ba3a3b4dfe5b0029",
  "source": "pragma solidity ^0.4.22;\n\n\nimport '../node_modules/zeppelin-solidity/contracts/ownership/Ownable.sol';\nimport '../node_modules/zeppelin-solidity/contracts/token/ERC721/ERC721Token.sol';\n\n\ncontract EducationPass is ERC721Token, Ownable {\n  mapping(uint => uint) public expireDates;\n  uint public constant EXPIRE_TERM = (365 days) * 4; // 4 years\n\n  constructor() public ERC721Token(\"EducationPass\", \"EPT\") {\n  }\n\n  function mint(address _to, uint256 _uportId) public onlyOwner {\n    require(_to != address(0), \"_to is zero.\");\n    require(!exists(_uportId), \"already exist.\");\n    require(balanceOf(_to) == 0, \"already has token.\");\n    super._mint(_to, _uportId);\n    expireDates[_uportId] = now + EXPIRE_TERM;\n  }\n\n  /**\n   * @dev Returns whether the specified token exists and not expired\n   * @param _tokenId uint256 ID of the token to query the existence of\n   * @return whether the token exists and not expired\n   */\n  function exists(uint256 _tokenId) public view returns (bool _exists) {\n    address owner = tokenOwner[_tokenId];\n    return owner != address(0) && now < expireDates[_tokenId] ;\n  }\n}\n",
  "sourcePath": "/Users/nakajo/work/ethereum-learning/eth_hack_team15/email/truffle/contracts/EducationPass.sol",
  "compiler": {
    "name": "solc",
    "version": "0.4.24+commit.e67f0147.Emscripten.clang"
  },
  "schemaVersion": "2.0.1",
  "updatedAt": "2018-07-22T01:40:04.847Z"
}